:020000040800F2
:10000000000003206D060008452700084727000868
:10001000492700084B2700084D2700080000000072
:10002000000000000000000000000000318E000809
:100030004F27000800000000C18E00084987000813
:10004000BD060008BD060008BD060008BD06000884
:10005000BD060008BD060008BD060008BD06000874
:10006000BD060008BD060008BD060008BD06000864
:10007000BD060008BD060008BD060008BD06000854
:10008000BD060008BD060008BD060008BD06000844
:10009000BD060008BD060008BD060008512700087F
:1000A000BD060008BD060008BD060008BD06000824
:1000B000BD060008BD060008BD060008BD06000814
:1000C000BD060008BD060008BD060008BD06000804
:1000D000BD060008BD060008BD060008BD060008F4
:1000E000BD060008BD060008BD060008BD060008E4
:1000F000BD060008BD060008BD060008BD060008D4
:10010000BD060008BD060008BD060008BD060008C3
:10011000BD060008BD06000869270008BD060008E6
:10012000BD060008BD060008BD060008BD060008A3
:10013000BD060008BD060008BD060008BD06000893
:10014000BD060008BD060008BD060008BD06000883
:10015000BD060008BD060008BD060008BD06000873
:10016000BD060008BD060008BD060008BD06000863
:10017000BD06000875270008BD0600080000000045
:10018000BD060008BD060008BD060008BD06000843
:10019000BD060008BD060008BD060008BD06000833
:0C01A00081270008BD0600088D2700081C
:1001B00010B5054C237833B9044B13B10448AFF3A1
:1001C00000800123237010BD800400200000000087
:1001D000D858020808B5034B1BB103490348AFF3D5
:1001E000008008BD0000000084040020D8580208E8
:1001F000034613F8012B002AFBD1181A0138704767
:1002000001F0FF01102A2BDB10F0070F08D010F8C7
:10021000013B013A8B422DD010F0070F42B3F6D1CB
:10022000F0B441EA012141EA014122F007047FF0E4
:1002300000070023F0E80256083C85EA010586EA3B
:10024000010685FA47F5A3FA87F586FA47F6A5FA77
:1002500087F68EB9EED1F0BC01F0FF0102F0070283
:1002600032B110F8013B013A83EA010313B1F8D12E
:100270000020704701387047002D06BF354603380F
:10028000073815F0010F07D1013015F4807F02BF48
:10029000013015F4C03F0130F0BC0138704700BF99
:1002A0007BB972B90029BEBF00204FF0004106E0C3
:1002B00008BF00281CBF6FF000414FF0FF3000F076
:1002C000D3B9ADF1080C6DE904CE002909DB002B90
:1002D0001ADB00F04DF8DDF804E0DDE9022304B09C
:1002E0007047404261EB4101002B1BDB00F040F8FE
:1002F000DDF804E0DDE9022304B0404261EB410196
:10030000524263EB43037047524263EB430300F0F6
:100310002FF8DDF804E0DDE9022304B0404261EB90
:1003200041017047524263EB430300F021F8DDF8CE
:1003300004E0DDE9022304B0524263EB430370475B
:1003400053B94AB9002908BF00281CBF4FF0FF313C
:100350004FF0FF3000F088B9ADF1080C6DE904CE24
:1003600000F006F8DDF804E0DDE9022304B0704790
:100370002DE9F047089D8E4604468846002B4AD159
:100380008A42174662D9B2FA82F64EB1C6F120030C
:1003900001FA06F820FA03F3B74043EA0808B4402C
:1003A0004FEA174E1FFA87FCB8FBFEF1230C0EFB39
:1003B000118843EA084301FB0CF29A4209D9FB1861
:1003C00001F1FF3080F0EA809A4240F2E780023982
:1003D0003B449A1AA3B2B2FBFEF00EFB102243EA92
:1003E000024300FB0CFC9C4509D9FB1800F1FF32CD
:1003F00080F0D6809C4540F2D3803B44023840EAEE
:100400000140A3EB0C0300211DB1F3400022C5E91C
:100410000032BDE8F0878B4205D90DB1C5E9000176
:1004200000210846F5E7B3FA83F1002946D1734568
:1004300002D3824200F20581841A6EEB030201208E
:100440009046002DE5D0C5E90048E2E7002A00F01B
:100450009080B2FA82F6002E40F0A4808A1A030C33
:100460004FEA174E80B2BCB20121B2FBFEFC0EFB7C
:100470001C2243EA024304FB0CF29A4207D9FB1800
:100480000CF1FF3802D29A4200F2E080C4469B1A77
:10049000B3FBFEF20EFB123340EA034302FB04F40B
:1004A0009C4207D9FB1802F1FF3002D29C4200F2B5
:1004B000CA8002461B1B42EA0C40A5E7C1F1200698
:1004C0008B4022FA06F71F430EFA01F420FA06F3D6
:1004D0002EFA06FE4FEA1749234300FA01F81FFAE5
:1004E00087FCBEFBF9F01C0C09FB10EE44EA0E443D
:1004F00000FB0CFEA64502FA01F209D93C1900F1F5
:10050000FF3A80F09C80A64540F2998002383C4436
:10051000A4EB0E041FFA83FEB4FBF9F309FB1344AA
:100520004EEA044403FB0CFCA44508D93C1903F132
:10053000FF3E80F08280A4457FD9023B3C4443EAE1
:100540000040A4EB0C04A0FB02EC64457346E146BA
:1005500062D35FD05DB1B8EB030264EB090404FA27
:1005600006F622FA01F31E43CC40C5E900640021DF
:100570004FE7B1FBF2FC010C41EA0E4180B240EAC8
:1005800001423B4638463C46B846BE462026B1FBB3
:10059000F7F1A2EB080241EA0C4166E7014618E7D1
:1005A00010462CE7C6F120022EFA02F3B740B14004
:1005B00020FA02F24FEA174E0A43B3FBFEF8BCB230
:1005C0000EFB1833110C41EA034108FB04F9B0405B
:1005D00089454FEA104380B23ED9791808F1FF3CB3
:1005E00001D289451FD8A1EB0901B1FBFEF909FB36
:1005F00004F80EFB191192B242EA0142424529D297
:10060000BA1809F1FF31C4D24245C2D2A9F10201A0
:100610003A44BEE7F0459DD2BEEB02036CEB070CFB
:100620000138E14696E7A7EB09094944A8F1020C15
:10063000B1FBFEF909FB04F8DBE773467FE75046A0
:1006400066E70846FDE63B44023A33E7ACF1020CAC
:100650003B441CE749469CE7A1EB0901C446B1FBBA
:10066000FEF909FB04F8C4E7704700BFDFF834D097
:10067000002103E00C4B5B58435004310B480C4BFA
:1006800042189A42F6D30B4A02E0002342F8043B98
:10069000094B9A42F9D304F05FF824F007FA01F00D
:1006A00037FA704700000320888902080000002004
:1006B0007C02002080040020AC480120FEE7704747
:1006C00008B500F0BBFDBDE8084000F03FBD00F0FC
:1006D000B7BD704710B50421044622F0C4FF204680
:1006E00010BD000038B50C4B0C4C18800C4B822010
:1006F00019806368984740F6110398420AD1094D62
:1007000023682C60822098472B688220DB689847FA
:10071000002038BD0120FCE7A6040020A400002032
:10072000A4040020A80400204FF4A071F020FFF7DB
:10073000D9BF0000F7B5394D2B6804461B698220EC
:100740009847208000284ED02B680DF106025B6987
:1007500001A982209847324B1B78002B4BD0BDF863
:10076000062040F674639A423FD9ADF80630BDF8D2
:1007700006209B1A9BB20A2B42D90B22B3FBF2F341
:10078000284A1288934201D9013A93B2BDF8042055
:10079000254840F6B8318A4234D8C2F571620E322B
:1007A000016892B20F25B2FBF5F2204D2D88AA42C6
:1007B00084BF05F1FF35AAB28A4215468EB22AD906
:1007C000921B91B21A4E3768BB42BAB28CBF9A1ACA
:1007D000D21A92B211440529C4BF05603360036880
:1007E00063803368A38003B0F0BDB32A9CBFB422FA
:1007F000ADF80620BBE7BDF80630A3F5B473B9E742
:100800000023C3E7C2F56D62083292B20E2A016876
:10081000C8D800252A46891A89B2D3E7A80400203F
:1008200038260020A4040020A0040020A6040020F4
:100830009C04002037B568460D461446FFF77AFF42
:10084000BDF8000030B1BDF802302B60BDF80430B7
:100850002360012003B030BD032821D8DFE800F079
:10086000020B12190F4B1A68B2FA82F252090421D4
:100870000D4804F01BBC0B4B5A68B2FA82F25209C5
:100880000821F5E7074B9A68B2FA82F25209102163
:10089000EEE7044BDA68B2FA82F252092021E7E768
:1008A000704700BFAC04002000100240032821D88C
:1008B000DFE800F0020B12190F4B1A68003A18BF5C
:1008C000012204210D4804F0F1BB0B4B5A68003A99
:1008D00018BF01220821F5E7074B9A68003A18BFB4
:1008E00001221021EEE7044BDA68003A18BF01221A
:1008F0002021E7E7704700BFAC0400200010024051
:1009000003280DD8DFE800F00206080A0421054894
:1009100004F0D1BB0821FAE71021F8E72021F6E71F
:10092000704700BF0010024008B5032811D8DFE867
:1009300000F0020A0C0E0421074804F0B1FB431E2C
:100940005842584108BD0821F6E71021F4E720215C
:10095000F2E70020F3E700BF0010024070B5084D39
:1009600000240126E0B2FFF7DFFF18B12B68012B4E
:1009700018BF2E600134052C05F10405F2D170BDBD
:10098000AC040020012380F8781080F8793070479B
:100990007047002070470000034B4164003918BFC6
:1009A00001211970704700BF693B0120704700208A
:1009B0007047836B0BB10846184770474FF6FF70BE
:1009C0007047406803689B691847704770477047D5
:1009D0007047704710B5044600F048FD236803498E
:1009E000D3F890302046BDE810401847000000D0F2
:1009F00008B503680446D3F8843098472368204636
:100A0000DB6F984700F0ECF8236820465B6F98474F
:100A1000292001F04FFB00F0E3F8236820465B6FCC
:100A20009847F8E710B504460BF038FD23682046D8
:100A3000D3F8BC30BDE81040184700F0FBBC00F014
:100A4000FFBC00F031BD00F0D1BC00F041BD00F0B2
:100A500049BD00F0D5BC0AF04FBF10B58421044653
:100A600022F001FE204610BD10B590F8341090F829
:100A700078400C4B8C421A7809D03AB90A4A0B4993
:100A80001488088810800C8001221A7010BD002A7A
:100A9000FCD0054A05491488088810800C80002283
:100AA000F3E700BF623B01205E3B0120603B012079
:100AB00070B50D46194635B9094B0A4A0A4840F245
:100AC000FF2123F00DFDC0E90F52084B003A18BF7B
:100AD00001221A700368BDE87040D3F890301847BF
:100AE0004859020880590208CE590208683B012083
:100AF00008B5094B1B888B4203D8084B1B889342CF
:100B000005D9074B074A0848A32123F0E9FC074B06
:100B10001980074B1A8008BD5E3B0120603B012015
:100B2000135A0208765A0208CE590208643B012083
:100B3000663B0120034690F87A0018B158680368B4
:100B40001B68184770470000012108B500220846BD
:100B500007F084FE0A4B186028B90A4B0A4A28217C
:100B60000A4823F0BDFC00220421012007F015FFF4
:100B7000074B186018B9074B034A2C21F0E708BD52
:100B8000C0040020B95A0208025B0208315B020867
:100B9000BC0400208F5B0208024B4FF0FF31186845
:100BA00007F0A6BEC0040020014B186807F0CCBEB9
:100BB000C0040020024B0021186807F099BE00BF56
:100BC000C0040020FFF7F0BF034804490068002379
:100BD0001A4607F01DBF00BFBC040020040000201F
:100BE00013B5084C00231A4601A9206807F041FFFD
:100BF00020684FF0FF33002201A907F03AFF02B04E
:100C000010BD00BFBC04002003685B6C18470120C6
:100C1000704703689B6A1847FEE740F2EF30704761
:100C2000054B0360054B4FF08062C3F88820BFF38B
:100C30004F8FBFF36F8F7047E464020800E100E05C
:100C400010B504464FF45A61FFF7EAFF204622F040
:100C50000AFD204610BD000082B0002301930E4B18
:100C60001A6B42F400021A631A6B02F4000201923A
:100C7000019A1A6942F400021A611A6922F4000208
:100C80001A61064B064A1A61064A5A61064B4FF032
:100C900080629A6002B07047003802401428002039
:100CA000F90E0008190C000800E100E008B50A2858
:100CB00009D8DFE800F006100E0808080810101028
:100CC0001000022008BD054B054A0648902123F07C
:100CD00007FC0020F6E70120F4E700BFD15B020823
:100CE000EC5B0208375C020838B50C46887FFFF7DA
:100CF000DDFFA58AE28A164B2169586342EA054264
:100D00005A64628BD963521B1A642568082D0ED170
:100D10009A611A615862207F0E4A42EA0062DA61E3
:100D2000E2681A620C4A5961D9601A6038BD002223
:100D3000D8611A61E1680A0A480902F4784200F4AD
:100D4000FC600243C1F3C4010A439A63034AECE71F
:100D500000B002400900010001230200012303004A
:100D600008B50B280BD8DFE800F00612100A0A0AB3
:100D70000A0808080808022008BD0520FCE7054B02
:100D8000054A06486F2123F0ABFB0020F4E7012061
:100D9000F2E700BFD15B0208935C0208375C0208EF
:100DA0002DE9F04191F81D800C464046FFF7D8FF31
:100DB000A77F05463846FFF7D3FF06463846FFF7BC
:100DC00075FFA18A628B444B521A1A649A61228B76
:100DD000521A1A61E28A586342EA01425A6421694E
:100DE0006268D963DA602068802828D0227F0FD813
:100DF000202867D0402865D004281AD0364B45EA11
:100E0000026545F40035B845DD6161D0334A44E000
:100E1000B0F5807F04D0B0F5007FEFD1304800E01E
:100E2000304840EA0262DA61E2681A625E62596141
:100E300032E045EA026242F40032DA61F6E7A06885
:100E4000021DDA62227F45EA026545F40035DD6164
:100E50005E625961017841B1012921D0224B234AB8
:100E600023484FF48D7123F03BFBDA69418822F46B
:100E70007F42013922F0100242EA0122DA610121A7
:100E8000154BDA6942F02002DA61DA699206FCD485
:100E900010229A600029B9D0164A1A60BDE8F08184
:100EA000B2F1FF01DA69408822F47F4200F1FF309D
:100EB00022F0100242EA002242F0100218BF012183
:100EC000DA61DDE745EA0262034B42F40032B4E73F
:100ED00042F20132E1E700BF00B00240012301000D
:100EE000090002000A000200DD5C0208F75C02084B
:100EF000375C020801230200024B1B685868036834
:100F00005B6918476C3B012070B5044625460A4BC7
:100F10000C30002660602672667245F8203B602225
:100F200029460BF011FC04F55A63EE6024359D420E
:100F3000FBD1204670BD00BFE4640208034B1A6871
:100F4000D207FCD423229A60704700BF00B0024051
:100F50007047000030B50F4C2568ED07FCD4232501
:100F60000904A56041F001010225FF2B656361645E
:100F7000E0630AD00849656241EA0363E361074B15
:100F800022626061E060236030BDE561039BA36382
:100F9000034BF8E700B00240090001000100020025
:100FA0000100030030B50E4C2568ED07FCD4232565
:100FB0001204A56042F001020225FF2B6563626402
:100FC000E063E16008D01B0643F00213E361054BC8
:100FD00065626061236030BD034BE3610123F9E783
:100FE00000B0024001000200020002FF30B50B4CCD
:100FF0002568ED07FCD4232512041B06A56043F4E5
:101000000033022542F0010265636264E063E1603F
:10101000E361034B65626061236030BD00B0024054
:1010200001000200012070470C2070470C2303FBD5
:101030000100083070470C2303FB010008307047A3
:10104000012070474FF4CB6070474FF4CB6303FB34
:101050000100083070474FF4CB6303FB01000830F8
:101060007047012070471020704700EB01100830D6
:10107000704700EB011008307047084601F08ABD48
:1010800010B5034B036004460AF08CF9204610BDEE
:101090009C65020810B50446FFF7F2FF20461421B4
:1010A00022F0E1FA204610BD10B5034B0360044660
:1010B0000AF078F9204610BD6865020810B50446AC
:1010C000FFF7F2FF20464FF4CC6122F0CCFA204625
:1010D00010BD000010B5034B036004460AF062F92E
:1010E000204610BD3465020810B50446FFF7F2FF34
:1010F0002046182122F0B7FA204610BD10B5084B43
:101100000360044600F28C60FFF7BAFF04F12C0084
:10111000FFF7CAFF04F11400FFF7DCFF204610BD03
:10112000D065020808B50248FFF7E8FF08BD00BF18
:101130009C13002010B50446FFF7E0FF20464FF453
:10114000006122F090FA204610BD00002DE9F34125
:1011500001F096FB054601F097FB0024014623466B
:1011600028462246009413F0EBF9274B274A1A60D1
:10117000204602F09FFC264D264B274A27489A60BE
:1011800013F046F92B68BFF35B8FDB0735D4284695
:1011900022F06BFA88B3224C224B236004F2A4663F
:1011A00004F1140004F12C0804F28C676060C4F8A8
:1011B0000880E76026610AF0F7F81B4B6361404640
:1011C0000AF0F2F8194BE36238460AF0EDF8184BD2
:1011D000C4F88C3604F5D46002F0F4FC224604F521
:1011E000D461304602F0E4FC304601F0D3FC1148F3
:1011F00023F094F9284622F044FA0F4802B0BDE8E3
:10120000F041FFF7E7BB00BFD03B012048050020BD
:1012100098130020680500204C05002008000020DD
:101220009C130020D0650208346502086865020836
:101230009C65020825110008C404002070470000C6
:101240000148FFF7D5BB00BFC404002070B5264E8F
:10125000264C274D274B23603046FFF755FE284686
:1012600018F074FA244811F0F7F9244B2448DC6094
:1012700000224FF48071C3E9121222491A86C3E991
:101280001A12214983F85820C3E91E011F49C3F8E7
:1012900080101F491F480B60F021C3E90422C3E9F5
:1012A0000622C3E90822C3E90A22C3E90E22C3E9E0
:1012B0001022C3E91422C3E917225A6683F870206A
:1012C0005A67C3E9016501801348018013484FF450
:1012D000A07101801248018012490A70012283F82E
:1012E0003420114A1A6070BDF405002094130020C8
:1012F00068050020385902084C050020C40400206D
:101300000000010101000001000450001A00140057
:101310006C3B01205E3B0120643B0120603B0120CF
:10132000663B0120623B0120F86302080148FFF799
:1013300077BC00BFF4050020002070478180704713
:10134000C180704701817047418170477047704785
:1013500070477047704710B4C4880368121B8488B4
:101360005B6D091B12B25DF8044B09B218474FF6CA
:10137000FF7383814FF0FF3303621368C361106012
:101380007047002070478B8883800120704770472A
:1013900080F82610704790F82600704710B500229C
:1013A000B1F90840B1F90A10028042808480C180FE
:1013B00010BD0022028042808280C2807047017787
:1013C000704780ED080A704780F82410704780F855
:1013D0002510704701207047983070478C30704757
:1013E000843070477047704770470000034B90226D
:1013F00083F85A2383F85823704700BF00E100E0C8
:10140000094A0A49D3680A48C3F30A03013B9BB25D
:101410000B801169C1F30A01013901801364536B18
:1014200043F0010353637047006801409E1B002096
:101430009C1B0020014BD3F8AC00704700680140B2
:10144000024B0122C3F8AC105A6270470068014099
:1014500010B52C21044622F006F9204610BD10B527
:10146000BC21044622F0FFF8204610BD70B50446AA
:101470000AF097FA23689D6E0FF086FE014620461B
:10148000A8472368054AD3F88C502046AC46002371
:10149000BDE87040A2F51631604700BF00B004D02F
:1014A0000AF066BA0AF070BA0AF02CBA0AF09BBBCE
:1014B00090F8252012B103685B691847704790F8CF
:1014C00025201AB190F8242002B11860704700005E
:1014D000034B4FF080629A604FF080729A607047C1
:1014E00000E100E0084B4FF08062C3F88820BFF3B2
:1014F0004F8FBFF36F8F4FF08072C3F88820BFF318
:101500004F8FBFF36F8F704700E100E070B500238D
:10151000124E8380124B0360336893F858200546BF
:101520000AB1D86C00B998680368DB6A98473368D9
:10153000B0FA80F4D86C640930B10368DB6A98476C
:10154000002808BF44F001042CB9064B064A07489E
:101550002C2122F0C5FF284670BD00BF6C3B012046
:10156000E4650208355D0208935D0208CC5D02085F
:1015700070B5254E3568BFF35B8F15F0010540D17E
:10158000304622F072F800283BD0204C204B2561D9
:1015900004F13400C4E90035C4E90255E584A562CC
:1015A000A58511F03EFB04F158000CF081FD194BAC
:1015B000A3652046184B40F8843BFFF7A7FF174B65
:1015C000C4F884302433C4F88C304FF4C803C4E921
:1015D00028350023C4F8AC30C4F8B030C4F8B430B7
:1015E000C4F8B8300E480F4BC4F89050C4F89C5063
:1015F000C4F8A850C4F8983022F090FF304622F08A
:1016000040F8024870BD00BFA01B0020A41B0020B2
:1016100088730208046602087C6602083C730208AC
:10162000E91300081C73020838B5184C23685BB333
:10163000174B184A1B6C11888B4216D1164B198810
:1016400004F048FB236893F86A200025013283F8F0
:101650006A2083F87C50FFF7B7FA20680AF01EFF73
:101660002846BDE83840FFF7F7B804F033FB24689C
:10167000236820461B6A9847012384F87C300020A9
:10168000BDE83840FFF712B938BD00BF6C3B012000
:10169000006801409E1B00209C1B002008B50C49DF
:1016A0000C48012209F01CF908B100F05DFD0A495F
:1016B000084809F028F908B100F056FD054809F07E
:1016C0003BF918B1BDE8084000F04EBD08BD00BFB1
:1016D00040000020601C002064010020122301480B
:1016E0000B8070472C000020042301480B807047BA
:1016F00028000020002370B54D1C1E46040FB0F1D9
:10170000204F34BF3034373401F8134005F81360EC
:101710000133DCB2A2424FEA0010EFD870BD0000E6
:101720001A2310B50B800A4BD3F8100AD3F8182AE5
:1017300080180AD0D3F8144A06490822FFF7DAFFC6
:10174000042210312046FFF7D5FF034810BD00BF2B
:101750000070FF1F0E0000200C00002010B5044C8C
:1017600004480A46214609F0ADFC204610BD00BFE2
:101770003C1F00202E5E020810B5044C04480A46A7
:10178000214609F09FFC204610BD00BF3C1F0020F1
:10179000415E020810B5044C04480A46214609F08F
:1017A00091FC204610BD00BF3C1F0020575E020880
:1017B00010B5044C04480A46214609F083FC204633
:1017C00010BD00BF3C1F0020625E020830B5044619
:1017D00089B01422002103A823F0BFF82268184B17
:1017E0009A422BD1174C184800250195236B43F0E2
:1017F00002032363236B03F0020301934FF440427F
:10180000019B0223CDE9032303210C23CDE9061319
:101810000DEB030103F060FB0295236B43F00053D3
:101820002363236B03F0005302934D202A460521C6
:10183000029B03F007FA4D2003F036FA09B030BDE1
:1018400000000440003802400004024000F29C41C5
:10185000D0F8E00409F082B8242303FB0103D0F898
:10186000E004D3F8602209F0A9B8242303FB0103A4
:10187000D0F8E0041A6A09F0D6B8D0F8E00409F00C
:1018800070B910B5C179044621B1022901D000F028
:101890006BFC0121D4F8E00409F047F9D4F8E00426
:1018A000BDE8104009F012B910B50446D0F8E004C4
:1018B00009F03EF92268D2F8003E43F00103C2F875
:1018C000003EE37A23B1034A136943F00603136130
:1018D00010BD00BF00ED00E0D0F8E00409F036B91B
:1018E000D0F8E00409F05DB9D0F8E00409F046B999
:1018F000D0F8E00409F068B9D0F8E00409F066B95E
:1019000008B50278012A034627D11548C0F8E0340B
:10191000C3F8C802134B0360062303714FF400732E
:10192000C38002234372002343810373C381037482
:1019300004F0EEF908B100F017FC4FF4007108480C
:1019400004F00BFF80220021054804F0E7FE044864
:101950004FF4BA72012104F0E1FE002008BD00BF7F
:10196000502100200000044011F0800FD0F8C83250
:101970004FF024021BBF01F07F0102FB013302FB89
:101980000133987D08BF93F85602704700487047AE
:101990003C210020704718B102280CBF0120032011
:1019A000704708B5D0F8C80204F021FABDE8084035
:1019B000FFF7F1BF10B51446D0F8C8021A46234607
:1019C00004F047FABDE81040FFF7E5BF08B5D0F8CE
:1019D000C80204F077FABDE80840FFF7DCBF08B59D
:1019E000D0F8C80204F0D5FABDE80840FFF7D3BF2D
:1019F00008B5D0F8C80204F003FBBDE80840FFF7C3
:101A0000CABF08B5D0F8C80204F010FABDE8084013
:101A1000FFF7C1BF08B5D0F8C80204F09FFABDE8CF
:101A20000840FFF7B8BF08B5D0F8C80204F078FA4C
:101A3000BDE80840FFF7AFBF07B5064BADF806009D
:101A40001B68054801220DF1060105F0E9FB03B012
:101A50005DF804FB5C000020C026002008B5FFF7FD
:101A60001DFE02F0DFFA02F0ADF9142006F0EAFEE6
:101A7000F7E702F077B9000030B595B010220021E9
:101A80000AA822F06AFF1422002103A822F065FFB1
:101A900000251D4B01951A6C42F080521A641B6C94
:101AA0001A4A03F080530193019B0295136823F4B3
:101AB000404343F480431360136803F440430293AC
:101AC0000122029B4FF480330224CDE908234FF416
:101AD0008003CDE90E4304214823CDE9101308A863
:101AE00003231393129404F03DFE0F23CDE9033436
:101AF00021464FF4805303A8CDE90635059505F03E
:101B00000DF815B030BD00BF003802400070004035
:101B10002DE980489BB002F02DFEFFF7ADFF1422A7
:101B200000210DA822F019FF0024C84B00941A6B65
:101B3000C74842F010021A631A6B02F010020092BA
:101B4000009A01941A6B42F020021A631A6B02F099
:101B500020020192019A02941A6B42F080021A63E9
:101B60001A6B02F080020292029A03941A6B42F0FE
:101B700004021A631A6B02F004020392039A04949B
:101B80001A6B42F001021A631A6B02F0010204920E
:101B9000049A05941A6B42F002021A631A6B02F05F
:101BA00002020592059A06941A6B42F040021A63EB
:101BB0001A6B02F040020692069A07941A6B42F0E2
:101BC00008021A631B6B03F00803224607933C21AB
:101BD000079B03F06BFA9F480122022103F066FA8B
:101BE00022469C48042103F061FA22469A484FF4A9
:101BF000405103F05BFA01263C23CDE90D369448B1
:101C00000F9403230DA94FF48815109303F064F982
:101C1000402392480F960DA90227CDE90D3503F018
:101C20005BF98C480DA9CDE90D76CDE90F4403F0A1
:101C300053F9042387480DA9CDE90D36CDE90F47A7
:101C400003F04AF9802386480F960DA9CDE90D359A
:101C500003F042F920237F480F960DA9CDE90D35F9
:101C600003F03AF94FF440537B487E4D0DA9CDE97E
:101C70000D36CDE90F4703F02FF922460521172035
:101C800002F0E0FF172003F00FF87748774B03606E
:101C900003F018F8DFF8F4C1754B2C62C5E900C3F6
:101CA00028464FF48043C5E90434C5E90244C5E938
:101CB000064403F015FC1021284603F059FE214686
:101CC000284603F074FE6B4DDFF8C4E1AC624FF4BC
:101CD0008273C5E900E34FF400781823C5E9068351
:101CE00028460A23C5E90244C5E90444C5E9084475
:101CF000EB6205F039FA8F232246394655488DF8B4
:101D000024308DF8344003F0D1F932464FF47A7321
:101D100009A9284605F084FA4FF47A7332460DA9D2
:101D2000284605F029FC324639464A48524D03F010
:101D3000BDF99DF83430D32B04BF504B1E70504B6F
:101D40000126C5E900364FF0100A40230024C5E9FA
:101D500004A34FF4C073C5E906344FF40063C5E92A
:101D600008344FF4005302274FF00409AB624FF0E0
:101D7000030B07230DA92846CDE90D73CDE90F9379
:101D80004FF00808C5E90249CDE911B7139705F0EE
:101D9000CFF84FF6FF7209A92846CDE90A860894C4
:101DA00009960C9405F0E4F8304602F00FFD4FF66A
:101DB000FF7209A92846CDE90978CDE90B6405F041
:101DC000D7F84FF6FF7209A92846CDE909B8CDE941
:101DD0000B9405F0CDF84FF40C730893089B0C930B
:101DE0004FF6FF7209A92846CDE909980B9605F030
:101DF000BFF840F26A51284605F0D8F8342221464F
:101E00000DEB020022F0A9FD1E4D1F4B2C61C5E910
:101E100000340923C5E905361D23C5E9073B40F217
:101E20000D1240F24313C5E9092340F2171140F2A5
:101E300047132846C5E90B13C5E90244AC8685F86B
:101E4000364003F04FFEFF21F02223E0003802402D
:101E50000010024000080240000C02400014024042
:101E600000000240C027002054280020003002401B
:101E7000A0860100C026002044260020382600202D
:101E8000400100A01827002000680140005C0040CD
:101E900000500140CDE912144FF4806005214FF449
:101EA000A073CDE91401CDE90E240DA9CDE91642A8
:101EB00028462246344D1893CDE910370D94ADF8DD
:101EC00064408DF8664003F0D8FE304B2B601B68F1
:101ED00098472B682E4DDB6898472E4B2846C5E95E
:101EE0000034C5E90274C5E90A47C5E90C4402F0AB
:101EF000F9FE3146284602F0ABFF524621460DA8B6
:101F000022F02BFD244D254BAC60C5E9003428465A
:101F1000234BAB622C612C7685F82040EC62EC60A0
:101F2000EE6185F830406E6102F064FC0DA90D236E
:101F30002846CDE90D361B4D0F9402F0D5FD1A4809
:101F40004FF4E133C0E900530C23C0E90534C0E984
:101F500002440461C46105F0CBFDFEF7B1FBFEF75E
:101F6000AEFB06F0FFFB114A1148214606F026FCA5
:101F7000104B114A18602146104806F01FFC104B08
:101F8000186006F001FCFEE7342600206C000020FB
:101F90001428002000B002405C28002000200140EE
:101FA0000100000F0010014078260020E4660208BE
:101FB0005D1A000840260020C0660208CF0600080F
:101FC0003C260020704770477FB5094B8DF81720DD
:101FD0001B6802930DF117020123009201930A4638
:101FE0000146044803F024FB07B05DF804FB00BF82
:101FF00060000020C02700207FB500238DF8173037
:10200000084B1B6802930A4601230DF1170100914A
:1020100001930146044803F09BFB9DF8170007B0AD
:102020005DF804FB60000020C02700201FB5084CAD
:1020300024680092CDE901340A460123014605488F
:1020400003F086FB003818BF012004B010BD00BFAC
:1020500060000020C027002002F0B8BB10B5064C7D
:1020600000222046042103F021F820460122BDE889
:102070001040042103F01AB80008024038B50B4D97
:10208000044601220A484FF4005103F00FF80022E1
:102090000421284603F00AF82046FFF7CDFC284625
:1020A0000122BDE83840042103F000B800080240D6
:1020B000000C024038B50B4D044600220A484FF48C
:1020C000005102F0F3FF00220421284602F0EEFF47
:1020D0002046FFF7B1FC28460122BDE83840042124
:1020E00002F0E4BF00080240000C0240F7B5144EB5
:1020F000144F05460C4630460022042102F0D6FF5C
:1021000000224FF40051384602F0D0FF2846FFF776
:1021100093FC0D4B0D481B68224601A905F02CFAD3
:10212000384601224FF40051019C02F0BFFF3046B7
:102130000122042102F0BAFF204603B0F0BD00BF27
:1021400000080240000C02405C000020C026002075
:1021500002F03CBB0268034B9A4201D102F024BB5F
:10216000704700BF001000407047000082B00E4B67
:1021700000220092596C41F480415964596C01F479
:102180008041009100990192196C41F080511964CD
:102190001B6C03F080530193019B0F216FF0010032
:1021A00002B002F04FBD00BF0038024010B5044637
:1021B00088B01422002103A822F0CFFB2268124B22
:1021C0009A421ED103F58C33002101915A6C0F48BD
:1021D00042F480725A645A6C02F480720192019A3D
:1021E00002911A6B42F004021A631B6B03F00403A2
:1021F0000293029B0822032303A9CDE9032302F0E3
:102200006BFE08B010BD00BF002001400008024076
:102210000268094B9A4282B00BD100230193074B0D
:102220001A6B42F480521A631B6B03F480530193C0
:10223000019B02B0704700BF0030024000380240EE
:1022400007B50F4B02689A4216D10022A3F5F0435E
:102250000192196B41F4000119631B6B03F4000335
:10226000019305215A20019B02F0ECFC5A2003B097
:102270005DF804EB02F018BD03B05DF804FB00BF8D
:1022800000B002402DE9F043044689B01422002139
:1022900003A822F062FB2268244B9A4243D1244CCB
:1022A000244800250095236B43F004032363236B2C
:1022B00003F004030093009B0195236B43F001039B
:1022C0002363236B03F001030193019B4FF0120979
:1022D0004FF400734FF001080327042603A9CDE94A
:1022E0000339CDE90587079602F0F6FD4FF48073B8
:1022F0001148079603A9CDE90339CDE9058702F016
:10230000EBFD0295236C43F400032364236C03F478
:1023100000030293029B236A43F400032362236AAF
:1023200023F40003236209B0BDE8F083005C0040A1
:10233000003802400008024000000240F0B599B0A9
:1023400004461422002107A822F007FB30220DEBDF
:102350000200002122F001FB22685E4B9A4240F00D
:10236000B78008230C9332231093022312930CA8F6
:102370004FF48033159304F0AFFC08B1FFF7F4FE7F
:10238000554B5648002400945A6C42F080625A64BF
:102390005A6C02F080620092009A01941A6B42F02B
:1023A00020021A631A6B02F020020192019A029431
:1023B0001A6B42F001021A631A6B02F001020292D8
:1023C000029A03941A6B42F002021A631A6B02F02B
:1023D00002020392039A04941A6B42F040021A63B9
:1023E0001A6B02F040020492049A05941A6B42F0B0
:1023F00004021A631A6B02F004020592059A06940D
:102400001A6B42F008021A631B6B03F00803069371
:1024100002250E26069B0B964FF4806307A9CDE993
:102420000735CDE9094502F057FD41F658032C4820
:102430000B9607A9CDE907350927CDE9094502F033
:102440004BFD032327480B9707A9CDE90735CDE9B5
:10245000094502F041FD4FF4706322480B9607A92D
:10246000CDE90735CDE9094502F036FD4FF40C639F
:102470001D480B9607A9CDE90735CDE9094502F0BE
:102480002BFDC02319480B9607A9CDE90735CDE9E7
:10249000094502F021FD082315480B9607A9CDE94F
:1024A0000735CDE9094502F017FD4FF4A0530E485A
:1024B0000B9707A9CDE90735CDE9094502F00CFDD9
:1024C00058202246052102F0BDFB582002F0ECFB0B
:1024D00019B0F0BD0068014000380240001402400D
:1024E00000000240000402400018024000080240C0
:1024F000000C024010B5044688B01422002103A845
:1025000022F02BFA2268144B9A4223D103F5684338
:10251000002101915A6C114842F480125A645A6C9D
:1025200002F480120192019A02911A6B42F0200289
:102530001A631B6B03F020030293029B4FF460723B
:1025400002230321CDE903230523CDE9061303A9C3
:1025500002F0C2FC08B010BD00500140001402405F
:1025600010B5044688B01422002103A822F0F5F922
:102570002268144B9A4223D103F594330021019130
:102580005A6C114842F010025A645A6C02F0100260
:102590000192019A02911A6B42F001021A631B6BBD
:1025A00003F001030293029B4FF4C0620223032154
:1025B000CDE903230723CDE9061303A902F08CFC20
:1025C00008B010BD00100140000002402DE9F041AC
:1025D00086B0002303932B4B1C68002C4FD14FF087
:1025E0000108C3F80080284B00949A6B274842EA00
:1025F00008029A639B6B03EA0803009302270326F1
:102600000C25009B01A94FF63F03CDE90137CDE929
:10261000046502F061FC1E48059501A9CDE901871A
:10262000CDE9034602F058FC48F2331319480595EA
:1026300001A9CDE90137CDE9034602F04DFC4FF683
:1026400083731548059501A9CDE90137CDE9034606
:1026500002F042FC4CF203731048059501A9CDE944
:102660000137CDE9034602F037FC60230C4805959D
:1026700001A9CDE90137CDE9034602F02DFC06B0F2
:10268000BDE8F081A4280020003802400014024078
:10269000000802400018024000100240000C0240F6
:1026A0000004024070B588B000230293204B1A6CDE
:1026B00042F010021A641B6C03F0100302930546EB
:1026C00001A903A8029B04F0E9FA069B4BBB04F0A6
:1026D000C5FA184E184B336040F2E733F360174BDE
:1026E000B0FBF3F3013B7360304600233361B3600A
:1026F000B36105F011F9044680B9304604F0E2FFF9
:10270000044658B9362002F0CFFA0F2D0DD82246D4
:102710002946362002F096FA094B1D60204608B083
:1027200070BD04F09BFA4000D3E70124F6E700BF38
:1027300000380240A82800200010004040420F004E
:10274000D40000207047FEE7FEE7FEE7FEE7704793
:1027500008B5202002F0B8FC402002F0B5FCBDE82E
:102760000840802002F0B0BC014804F0E9BF00BF7F
:10277000A8280020014803F089BC00BF5021002098
:10278000014803F01DBA00BF18270020014802F0DD
:10279000D5BA00BF142800200120704708B522F0E8
:1027A0007FF9162303604FF0FF3008BD08B522F013
:1027B00077F916230360FEE770B50D4614460E4602
:1027C000731B9C4201DC204670BDAFF3008006F80D
:1027D000010BF5E770B50D4614460E46731B9C427F
:1027E00001DC204670BD16F8010BAFF30080F5E761
:1027F0004FF0FF3070474FF400534B60002070479C
:1028000001207047002070470A4A116808B5034646
:1028100009B9094911601068694603448B4206D919
:1028200022F03EF90C2303604FF0FF3008BD136027
:10283000FCE700BFF0280020B0480120704710B529
:102840000421044620F00FFF204610BD08B50329DF
:1028500013D8DFE801F002060A0E01F077F90068EC
:1028600008BD01F073F94068FAE701F06FF980687C
:10287000F6E701F06BF9C068F2E70020F0E700002E
:10288000004870471C6702080120704713B50024F8
:1028900051B1036801948DF8034001AA9C680DF1C1
:1028A0000303A04702B010BD0846FBE7C08970478C
:1028B000008A7047C088704780887047807A00F02F
:1028C0007F007047807AC009704700207047000081
:1028D0009FED010A704700BF00000000704710B56F
:1028E0000821044620F0BFFE204610BD7047704707
:1028F00000F598730868496803C3704770477047CC
:102900004160704770477047064BC0F84C31002358
:10291000C0F8503100F5A273C0F84801C0F840314A
:10292000704700BFC9290008012303727047704730
:1029300010B4C26841685410034601EB6200D2072C
:1029400048BF0A599B685DF8044B48BFD3581847E5
:102950000346406830B19A681AB9D86800F001009F
:1029600070470120704710B50C21044620F07BFE13
:10297000204610BD10B51021044620F074FE2046FC
:1029800010BD10B54FF4AE71044620F06CFE204629
:1029900010BD10B50EF0F8FB0368BDE81040DB6B0E
:1029A000184710B50446D0F8400158B10368DB68F9
:1029B000984738B1D4F8400103689B6898470023D2
:1029C000C4F8403110BD00002DE9F14FD0E9556A3F
:1029D0000746B06803681B6A9847B0F5CB6F05D20D
:1029E000444B454AA321454821F07AFD70680368AD
:1029F0001B6A98470F2803D8414B3F4AA421F2E7AE
:102A0000F06803681B6A98470B2803D83D4B3A4A85
:102A1000A521E8E70EF0B8FBDFF8F09004300EF0E7
:102A2000D8FBD9F8000010B10368DB689847D9F8E3
:102A3000000010B103681B689847DFF8D480D8F80D
:102A4000000010B103685B699847D7F83C0110B1EA
:102A500003685B689847D8F8000010B103681B68EA
:102A60009847D7F83C0110B103689B689847F06815
:102A7000036800215B6A98474FF0000B224BC0F8B7
:102A800004B0044680F808B00360B0680368594693
:102A90005B6A9847054601F025F970680368594656
:102AA0005B6A98472946064601F09EF8331DC7F831
:102AB0003C61C9F80040C8F80050CAF800302B68E3
:102AC000C6F808A02846DB68EE63984733683046AE
:102AD0001B6898472146284610F006FD23682046CB
:102AE0001B69984723685B69204601B0BDE8F04F39
:102AF000184700BF855E0208135F0208E55F020801
:102B00002C600208CF600208B4670208B43B0120C1
:102B1000B03B0120044B1B6893F858200AB1D86CD5
:102B200000B99868704700BF6C3B0120F8B51746A4
:102B300004460E460EF0EAFB124B1C60124B23605B
:102B4000124B0025C4E95135114BC4E9535518689F
:102B5000036801219B68C4E94F55C4E9557698473D
:102B6000284600F0A7FFFFF7D5FF18F098FCFFF705
:102B7000D1FF18F00FFDFFF7CDFF18F017FD20462D
:102B8000F8BD00BFC03B012060670208486702082B
:102B90006C3B0120064BC0F84C310023C0F850318B
:102BA00000F5A273C0F84801C0F84031704700BF7B
:102BB000C9290008406A7047806A704770478A8850
:102BC0000B8810B5D20A4C88C1699BB251F822001B
:102BD00043EA0443184410BD10B50446BAB1107B53
:102BE00068B1537BD27A1B0203F4E0631A43236A71
:102BF00003EB82031A888A4202D193F9020010BDC6
:102C000005D8013880B204330028F3D1F7E700205B
:102C1000F5E710B52C21044620F025FD204610BD17
:102C200030B58BB00446BDF860500895BDF85C50D7
:102C300007959DF8505006959DF84C5005959DF8C8
:102C4000485004959DF8445003959DF840500295D6
:102C50009DF83C500195BDF83850009510F09EF855
:102C6000064B2360159BE361169B2362199B6362ED
:102C70001A9BA36220460BB030BD00BFD867020884
:102C8000806A704770477047704770477047704759
:102C9000704770477047704770477047704770477C
:102CA000704770477047704770477047704770476C
:102CB000704700F5D273994270B504460D4602D1B3
:102CC0000368DB6A984704F51A739D4203D12368B1
:102CD00020461B6B984704F54B739D4203D1236834
:102CE00020465B6B984704F57C739D4203D12368B3
:102CF00020469B6B984704F2B4439D4203D123685E
:102D00002046DB6B984704F27C539D4205D1236833
:102D100020461B6CBDE87040184770BD90F82C3001
:102D20004BB100F16C021268C2653BB100F1740353
:102D30001B680366704700F16802F4E700F1700356
:102D4000F6E790F82C304BB100F16C021268C265C6
:102D50003BB100F174031B680366704700F1680221
:102D6000F4E700F17003F6E790F82C304BB100F176
:102D70007002126802663BB100F178031B6843667B
:102D8000704700F16C02F4E700F17403F6E730B429
:102D9000C26844685510034604EB6200D20748BF7E
:102DA00062599B6830BC48BFD358184703464068F7
:102DB00030B19A681AB9D86800F001007047012054
:102DC000704790F82D3080F85E30704790F82D30C5
:102DD00080F85A30704790F82D3080F85A3070479C
:102DE00010B53421044620F03EFC204610BD10B53D
:102DF0007821044620F037FC204610BD10B57C2118
:102E0000044620F030FC204610BD10B57821044661
:102E100020F029FC204610BD10B57C21044620F08E
:102E200022FC204610BD10B57C21044620F01BFC7E
:102E3000204610BD10B58021044620F014FC204629
:102E400010BD10B51021044620F00DFC204610BD29
:102E500010B540F25461044620F005FC204610BD38
:102E60000B898A89D21A4B89C988591A12B209B2B8
:102E70000FF0BEBB10B50446006B50B10368DB68B1
:102E8000984730B1206B036821469B68BDE810402D
:102E9000184710BD074A02600022C0E90122C0E9BC
:102EA0000322C0E90522C0E907224FF48072828420
:102EB000704700BF1076020870B5036804461B6BAC
:102EC000154698472368294620465B6BBDE870404D
:102ED000184770B504461D46BDF91060FFF7ECFFBA
:102EE0002368294620469B6B984723683146204635
:102EF000DB6BBDE87040184710B526220446002160
:102F000021F02BFD2046FFF7C5FF044B2360FF2374
:102F100084F826300023A362204610BDDC7402082A
:102F200010B50446FFF7B6FF064B23604FF47F420F
:102F30000023A3622363A285012384F82430204662
:102F400010BD00BF40680208036880F82C10D3F859
:102F50008C30184770B50D7990F82C3004463DB987
:102F60003BB123682046D3F88830BDE8704018474D
:102F70005BB1B5FA85F120464909FFF7E5FF236803
:102F800020465B699847002DEBD070BD70B50446B4
:102F90000D46FFF7DFFFA06F58B10368DB68984765
:102FA00038B1A06F03682A4621469B68BDE870408F
:102FB000184770BD70B50D46097990F82C6004462D
:102FC00009B916B170BD002EFCD0B1FA81F12046CE
:102FD0004909FFF7B9FF236820465B699847002E2F
:102FE000F0D02B79012BEDD123682046D3F888301F
:102FF000BDE87040184770B504460D46FFF7DAFF8C
:10300000A06F58B10368DB68984738B1A06F0368B8
:103010002A4621469B68BDE87040184770BD70B5D0
:103020000D4690F834302A7990F82C10A2F1020C59
:10303000DCF1000646EB0C06012A044680F83460F9
:1030400012D09BB981F00101FFF77EFF2368204673
:103050005B6998472B79012B08D123682046D3F868
:103060008830BDE870401847002BF6D070BD70B5B1
:1030700004460D46FFF7D3FFE06F58B10368DB68E5
:10308000984738B1E06F03682A4621469B68BDE83F
:103090007040184770BD000010B52622044600217C
:1030A00021F05BFC2046FFF7F5FE0A4B23600A4B3C
:1030B000A3624FF6FF73A3854FF47F020023C4E998
:1030C0000C3223874FF0FF32C4E91023E36320461C
:1030D00010BD00BF4C7402083867020870B5342276
:1030E0000446002121F039FC26462046FFF718FF50
:1030F000104B46F8343B3046FFF7FEFE00250E4BE2
:1031000063632A4629463046C4E91A55C4E91C556A
:103110002566A4F86450FFF7CFFE2046314608F03C
:1031200055F9064B23600123A56784F82430204617
:1031300070BD00BF146A020844750208B06A020834
:1031400070B5044626460025FFF7EAFE104B84F8CA
:10315000345046F8383B3046FFF7CEFE0D4BA363A4
:103160002A4629463046C4E91B55C4E91D55656603
:10317000A4F86850FFF7A0FE2046314608F026F973
:10318000054B23600123E56784F82430204670BD99
:103190004C6B020844750208E86B020810B4036720
:1031A000019B436703685DF8044BD3F88C30C0E99A
:1031B0001A1218472DE9F04F044697B0A046002593
:1031C0000FF0E6FFE14BE56348F8403B04F16C0A81
:1031D000404604F19807FFF78FFE5046FFF78CFE3C
:1031E00029463422384621F0B8FB3846FFF798FECE
:1031F00004F1CC0BD64BC4F898305846FFF77CFE50
:10320000D44BC4F8CC302A4629465846C4E9405528
:10321000C4E94255C4F8F850A4F8FC50FFF74CFE3E
:103220005946384608F0D2F84FF0010384F8BC3014
:10323000C94BC4F8983004F58A7304F5AE79184682
:10324000C4F810510393FFF727FF4846FFF724FF08
:1032500004F5D27318460A93FFF740FF04F508738C
:1032600018460493FFF718FF04F51A7318460B93DA
:10327000FFF734FF04F5397318460593FFF70CFF89
:1032800004F54B7318460C93FFF728FF04F56A7397
:1032900018460693FFF700FF04F57C7318460D935C
:1032A000FFF71CFF04F26C4318460793FFF7F4FE88
:1032B00004F2B44318460E93FFF742FF04F234536E
:1032C00018460893FFF7E8FE04F27C5318460F9364
:1032D000FFF736FF04F2FC5318460993FFF7DCFEB4
:1032E0009E4BC4F844369E4BC4F84C364FF4A07342
:1032F0002A46C4F84846C4F850562946009340462A
:10330000F023261DFFF7E5FD4FF07F43A3664146FE
:10331000304608F05BF84FF4A0732A460093294624
:103320005046F023FFF7D5FD8E4BC4F8943051463C
:1033300030464FF0DE0808F049F82A46CDF8008004
:1033400029465846DB23FFF7C4FDDFF828A2864B49
:103350008649C4F80811C4E940A303F54D1303F2EC
:103360006923C4F80C313846A4F8FC50FFF7D6FCAA
:10337000DB23CDF80080192238460B21FFF7A9FD89
:103380003946304610AF4FF0FF3B08F01FF8039866
:10339000DFF8E481DC224021FFF78EFD0399C4F8B9
:1033A00044B13846A4F848510AF0DAFF97E807001C
:1033B00004F5A87383E807004FF00100ADF854004E
:1033C00014A801460398CDF850800BF071FA0399C8
:1033D000304607F0FBFF012248465321FFF76CFD02
:1033E00049463846C4F88CA1A4F890510AF0B8FFB9
:1033F00097E8070004F5CC7383E8070014A80723B7
:1034000001464846ADF85430CDF850800BF050FAE4
:10341000494630464FF0160907F0D8FF2A4629469C
:1034200004F5EC70CDF800904423FFF752FD504BAB
:10343000A4F808520093A3F133130A984A4A51465C
:10344000A3F54C53FFF7AAFE04F244604423C4F8EA
:10345000D401039040F201120A98CDF800900B219C
:10346000FFF737FD0A99304607F0B0FF049840F2A5
:1034700005121021FFF720FD0499C4F850B2384618
:10348000A4F854520AF06CFF97E8070004F517738C
:1034900083E8070014A8062301460498ADF85430C9
:1034A000CDF850800BF004FA0499304607F08EFFF7
:1034B0002A46294604F52770CDF800904423FFF7EB
:1034C00008FD2B4BA4F8CC520093A3F133130B98B7
:1034D000254A5146A3F54C53FFF760FE0398C4F804
:1034E000980244230B98CDF800904FF48F720B2173
:1034F000FFF7EFFC0B99304607F068FF05984FF493
:1035000091721321FFF7D8FC0599C4F814B338461B
:10351000A4F818530AF024FF97E8070004F548734D
:1035200083E8070014A8052301460598ADF8543038
:10353000CDF850800BF0BCF90599304607F046FFF6
:103540002A46294604F5587018E000BF9C6C020812
:10355000DC6802084475020878690208846C020875
:10356000B32C0008FAE3ACFF302400FF663300FF01
:10357000996633FF996600FF38670208CDF800901E
:103580004423FFF7A6FC8F4BA4F890530093A3F1BC
:1035900033130C988C4A5146A3F54C53FFF7FEFDAC
:1035A0000398C4F85C0344230C98CDF800904FF4C2
:1035B0008F725621FFF78DFC0C99304607F006FFFD
:1035C00006984FF491725C21FFF776FC0699C4F8D7
:1035D000D8B33846A4F8DC530AF0C2FE97E80700D7
:1035E00004F5797383E8070014A8042301460698BC
:1035F000ADF85430CDF850800BF05AF906993046AA
:1036000007F0E4FE2A46294604F22440CDF8009053
:103610004423FFF75EFC6B4BA4F854540093A3F1D2
:1036200033130D98684A5146A3F54C53FFF7B6FD86
:103630000398C4F8200444230D98CDF8009040F27C
:1036400001125621FFF745FC0D99304607F0BEFEEA
:10365000079840F205125921FFF72EFC0799C4F88C
:103660009CB43846A4F8A0540AF07AFE97E8070004
:1036700004F5956383E8070014A80323014607981F
:10368000ADF85430CDF850800BF012F90799304660
:1036900007F09CFE2A46294604F2EC40CDF8009043
:1036A0004423FFF716FC484A4849464B0E98C4F895
:1036B0002425C4F82815C4F82C35A4F81C55C4F8E2
:1036C00020A5FFF751FB0398C4F8E40444230E98A7
:1036D000CDF8009040F20112A221FFF7FAFB0E99FB
:1036E000304607F073FE08984FF48172AE21FFF761
:1036F000E3FB0899C4F864B53846A4F868550AF0A5
:103700002FFE97E8070004F5AE6383E8070014A8CE
:10371000022301460898ADF85430CDF850800BF0E4
:10372000C7F80899304607F051FE2A46294604F2A8
:10373000B450CDF800904423FFF7CBFB224A234935
:10374000204B0F98C4F8EC25C4F8F015C4F8F435F4
:10375000A4F8E455C4F8E8A5FFF706FB039BC4F8FA
:10376000AC350F98CDF80090442340F21D12A221F1
:10377000FFF7AFFB0F99304607F028FE09984FF48A
:103780008F72B321FFF798FB0999C4F82CB638461D
:10379000A4F830560AF0E4FD97E8070004F5C76383
:1037A00083E807000998CDF8508014A9ADF854506B
:1037B0000BF07EF83046099907F008FE204617B056
:1037C000BDE8F08F996633FF302400FF663300FFB9
:1037D0007047000030B5174D2C6814F001048FB00D
:1037E000BFF35B8F22D128461FF03FFFF0B1124B91
:1037F000124913480A94CDE90B433F230993114B17
:103800000893114B0594CDE9064301220423CDE929
:1038100003320C2300931A46CDE90144FFF700FA66
:103820000A4820F07BFE28461FF02BFF04480FB00B
:1038300030BD00BFF4280020E06C02087886020842
:10384000F82800208088020890880208D1370008F4
:103850007047000030B5174D2C6814F001048FB08C
:10386000BFF35B8F22D128461FF0FFFEF0B1124B51
:10387000124913480A94CDE90B433F230993114B96
:103880000893114B07930123CDE9054304930423C7
:10389000CDE90243142300930C220194FFF7C0F9F1
:1038A0000A4820F03BFE28461FF0EBFE04480FB00C
:1038B00030BD00BF24290020E06C020820870208E8
:1038C00028290020848802089488020851380008BA
:1038D0007047000030B5174D2C6814F001048FB00C
:1038E000BFF35B8F22D128461FF0BFFEF0B1124B11
:1038F000124913480A94CDE90B433F230993114B16
:103900000893114B07930123CDE905430493042346
:10391000CDE90243092300930C220194FFF780F9BB
:103920000A4820F0FBFD28461FF0ABFE04480FB00C
:1039300030BD00BF54290020E06C0208C88702088F
:10394000582900208888020898880208D138000881
:103950007047000030B5164D2C6814F001048FB08C
:10396000BFF35B8F20D128461FF07FFEE0B13F23DD
:103970000993104B0893104B104911480A940122E7
:10398000CDE906430423CDE9033228230093CDE992
:103990000B44CDE901440594FFF742F9094820F0B2
:1039A000BDFD28461FF06DFE05480FB030BD00BFBD
:1039B000842900208C8802089C88020870880208EC
:1039C00088290020513900080020704700207047E6
:1039D0000EB403B503AB002153F8042B01930EF092
:1039E0005BFC02B05DF804EB03B070470CB407B5A4
:1039F00004AB53F8042B01930EF04EFC03B05DF8BA
:103A000004EB02B070470000436C10B5044673B37A
:103A1000038F2BB9184B194AC521194820F060FDB6
:103A2000C38E00EB43035B8C0BB310F0B6FA238F0D
:103A3000012B03D8134B144ACB21EEE7E28E531C23
:103A40009BB2092B194688BFA3F10A0104EB41017F
:103A500040F63F10498C814209D10A2B04EB420207
:103A600028BF002304EB4303508C58845184204624
:103A7000BDE8104010F094B9726102087B61020841
:103A800026620208706202087E62020810F04FB9D6
:103A900010B586B002AC84E806001A460AAB05935E
:103AA0000193099B00932146089B0CF00BFF06B085
:103AB00010BD000038B518BB124B13481C681349E1
:103AC000B4B1226822440260626822440A60A2689B
:103AD00014440F4B00221A8000F038F8054600F01D
:103AE00033F80C4B1C600C4B1D600C4B188007E02E
:103AF0000B4B03600B4B0B600B4B1C68002CE8D18D
:103B000038BD00BFC0290020B8290020B4290020FA
:103B1000BC290020C43B0120CC3B0120C83B012034
:103B2000C0880208A088020850890208044B1B685C
:103B300053F82100034B1B6803EB4000704700BFA4
:103B4000B4290020B8290020082070470048704799
:103B5000C429002010B5FFF77DFE064C2060FFF75A
:103B6000F9FE6060FFF736FEA060FFF7B3FEE0608D
:103B700010BD00BFC429002010B5002404600C60F3
:103B800014601C6010BD704710B54FF4AE71044650
:103B90001FF069FD204610BD10B50446D0F858014D
:103BA00000F013F82046BDE810400DF06FBB000098
:103BB00010B50446FEF7BAFF014B2360204610BD46
:103BC0004071020800220260704770477047043855
:103BD0007047704710B5102104461FF044FD204681
:103BE00010BDA0F10400F5E700228260024A0260E5
:103BF00018324260C16070479471020870470B46EA
:103C0000B1F90C10B3F90A0000F0B2BA074A137800
:103C10005BB2072BDDBF1378013303F0FF000820F0
:103C2000DCBF5BB2137000F0EBBA00BF6500002090
:103C3000074A13785BB2012BC3BF137803F1FF333C
:103C400003F0FF000120C4BF5BB2137000F0D8BACC
:103C500065000020074A13785BB2072BDDBF13789D
:103C6000013303F0FF000820DCBF5BB2137000F0EB
:103C7000D3BA00BF64000020074A13785BB2012B5F
:103C8000C3BF137803F1FF3303F0FF000120C4BF6B
:103C90005BB2137000F0C0BA6400002000F0BEB93F
:103CA00008B500F02FF918B9BDE8084000F0B8B920
:103CB00008BD00F07DB9000010B5034B0360044659
:103CC000FEF7F5FF204610BDBC71020810B5044692
:103CD000FFF7F2FF20464FF4CB611FF0C4FC2046F3
:103CE00010BD000010B50446FFF764FA034B2360D3
:103CF0004FF0FF33C4F85436204610BDBC710208A3
:103D000013B50446FEF7D4FF04F1980168460EF09F
:103D100089FCBDF90630BDF90420BDF90210BDF9DA
:103D2000000002B0BDE8104000F0F8B910B50C4634
:103D30000FF018F923791BB1013B012B08D910BDF5
:103D4000B4F90810B4F90600BDE8104000F002BA5A
:103D5000BDE8104000F048BA014B1878704700BF2A
:103D6000E029002010B5044600F02AFD802C09D17E
:103D70000E4A1368C31AC82B03D90D4B10600122D9
:103D80001A7010BD202C07D10A4A1368C31AC82B19
:103D9000F7D9094B1060F2E7402CF2D1074A1368BB
:103DA000C31AC82BEDD9064B1060E8E7DC290020C8
:103DB000E5290020D8290020E4290020D42900206A
:103DC000E329002070B52C4B1A78B2B100221A708A
:103DD0002A4B1A7882F001021A701B7803F0FF0454
:103DE0005BB9274D2B7843B1264B22461C702146E8
:103DF0002346204600F04CF82C70234A137883B1F8
:103E0000002313701D4A1F4E1278012502F0FF0493
:103E10003570FAB11A461946284600F039F8184BA1
:103E20001D701A4B1A7832B30024164D1C702246AE
:103E3000234621460220287000F02AF8142000F0C2
:103E4000C5FC2C702346224621462046BDE8704022
:103E500000F01EB8234622462146284600F018F8F6
:103E6000142000F0B3FC234622462146204634703D
:103E700000F00EF8D5E770BDE3290020E22900200C
:103E8000E1290020E0290020E5290020E429002084
:103E9000F7B507460E4615461C4600F039F80422D1
:103EA0000DEB020106488DF804708DF805608DF861
:103EB00006508DF8074007F006FA03B0F0BD00BFCA
:103EC000601C0020064A08B500231380054A012122
:103ED0001170054A137000F073FC044B186008BDA4
:103EE000F6290020F4290020EE290020F0290020E6
:103EF000034B1A7812B100221A707047FFF7E2BF25
:103F0000F4290020014B1878704700BFF4290020E5
:103F10002DE9F0479A46114B1B7880460F46914693
:103F2000D3B10F4B1B78BBB90E4E33887F2B13D800
:103F300000F046FC0C4A358814681060031B0B48DF
:103F400000F8358000EBC5000135477080F802901D
:103F500080F803A043603580BDE8F087F429002095
:103F6000EE290020F6290020F0290020F829002061
:103F700008B50A4B1A786AB9094B1B8853B1094B2B
:103F8000197841B901221A70074B198000F018FC0A
:103F9000064B186008BD1A70FCE700BFF42900202A
:103FA000F6290020EE290020EC290020E829002035
:103FB000F8B5154B1B782BB3144E338813B3144F3D
:103FC000144C00F0FDFB3B68B4F800C0C31A054672
:103FD000114800EBCC014A68934213D391F90330A6
:103FE00091F9022010F83C0091F90110FFF750FF01
:103FF000238832883D6001339BB29A4223809CBF64
:1040000000232380F8BD00BFEE290020F629002000
:10401000E8290020EC290020F8290020FFF768BFDC
:10402000FFF7A6BF70B5274E8CB00A250024304696
:1040300000F086FC4FF0FF31304600F0FFFC3046C8
:1040400000F04FFD0444012004F0FCFB013DEED1E3
:104050000A2340F6FC02B4FBF3F5ABB293422CD832
:10406000B3F5E16F27D20123174E347864B25C4375
:10407000802C25D014F1800F08BF6FF07E04002241
:104080001146104663B2FFF703FF33780F4A5BB265
:104090002821CDE9004302A8ABB220F0E5FB02A83D
:1040A000FCF7A6F80A2382B202A9094803F04FFDE3
:1040B000642004F0C7FB0CB070BD4FF0FF33D3E7B2
:1040C0007F24DCE75C2800206400002050630208A5
:1040D000782600200D4B10B5B3F90040844213DC64
:1040E0000B4BB3F900208A420EDC0A4BB3F90030C7
:1040F0002344984208DA084BB3F90030134499423C
:10410000ACBF0020012010BD0020FCE7FE2D0020E8
:10411000FC2D0020FA2D0020F82D002010B5074CB2
:1041200020800748018007490A80074A1380074A10
:104130004FF6FF731380064A138010BDFE2D00203A
:10414000FC2D0020FA2D0020F82D00206800002012
:104150006A00002038B50546FFF7BCFF18B1024BD6
:104160001D80024B198038BD6A00002068000020C5
:104170002DE9F84F07460E46FFF7ACFF60B3DFF8B6
:104180006090B9F90040002C26DBDFF85880134B13
:10419000B8F9005093F800B04D1B0BFB05F56FF01C
:1041A0007E0A5545B8BF55467F2DA7EB0404A8BF2E
:1041B0007F25FFF7D1FD0BFB04F15145B8BF5146F8
:1041C0007F29A8BF7F2100236AB249B2FFF760FEB2
:1041D000A9F80070A8F80060BDE8F88F660000201C
:1041E0006A00002068000020034A4FF6FF73138026
:1041F000024A1380704700BF680000206A00002058
:10420000082828BF0820034B012838BF0120187058
:10421000704700BF660000207047F02070474FF4E1
:10422000A07070472920FDF745BF2820FDF742BF49
:1042300008B5FDF713FFCA20FDF73CFFC320FDF7CB
:104240001DFF0820FDF71AFF5020FDF717FFCF20B4
:10425000FDF730FF0020FDF711FFC120FDF70EFF35
:104260003020FDF70BFFED20FDF724FF6420FDF764
:1042700005FF0320FDF702FF1220FDF7FFFE81205E
:10428000FDF7FCFEE820FDF715FF8520FDF7F6FEA3
:104290000020FDF7F3FE7820FDF7F0FECB20FDF7C0
:1042A00009FF3920FDF7EAFE2C20FDF7E7FE00208C
:1042B000FDF7E4FE3420FDF7E1FE0220FDF7DEFE0F
:1042C000F720FDF7F7FE2020FDF7D8FEEA20FDF7E6
:1042D000F1FE0020FDF7D2FE0020FDF7CFFEB12059
:1042E000FDF7E8FE0020FDF7C9FE1B20FDF7C6FE26
:1042F000B620FDF7DFFE0A20FDF7C0FEA220FDF785
:10430000BDFEC020FDF7D6FE1020FDF7B7FEC12090
:10431000FDF7D0FE1020FDF7B1FEC520FDF7CAFE67
:104320004520FDF7ABFE1520FDF7A8FEC720FDF7E1
:10433000C1FE9020FDF7A2FE3620FDF7BBFEC8208F
:10434000FDF79CFEF220FDF7B5FE0020FDF796FE7E
:10435000B020FDF7AFFEC220FDF790FEB620FDF7BE
:10436000A9FE0A20FDF78AFEA720FDF787FE272079
:10437000FDF784FE0420FDF781FE2A20FDF79AFE5A
:104380000020FDF77BFE0020FDF778FE0020FDF702
:1043900075FEEF20FDF772FE2B20FDF78BFE00204F
:1043A000FDF76CFE0020FDF769FE0120FDF766FEBB
:1043B0003F20FDF763FEF620FDF77CFE0120FDF7B0
:1043C0005DFE0020FDF75AFE0620FDF757FE2C206B
:1043D000FDF770FEC820FDF7BBFE2620FDF76AFE44
:1043E0000120FDF74BFEE020FDF764FE0F20FDF7F6
:1043F00045FE2920FDF742FE2420FDF73FFE0C205C
:10440000FDF73CFE0E20FDF739FE0920FDF736FED4
:104410004E20FDF733FE7820FDF730FE3C20FDF7FF
:104420002DFE0920FDF72AFE1320FDF727FE0520AB
:10443000FDF724FE1720FDF721FE1120FDF71EFEDB
:104440000020FDF71BFEE120FDF734FE0020FDF704
:1044500015FE1620FDF712FE1B20FDF70FFE0420AF
:10446000FDF70CFE1120FDF709FE0720FDF706FE03
:104470003120FDF703FE3320FDF700FE4220FDF75B
:10448000FDFD0520FDF7FAFD0C20FDF7F7FD0A20E4
:10449000FDF7F4FD2820FDF7F1FD2F20FDF7EEFDDF
:1044A0000F20FDF7EBFD1120FDF704FEC820FDF7FE
:1044B0004FFE2920FDF7FEFDBDE808402C20FDF74A
:1044C000F9BD08B5FDF7CAFD0321D320FDF70EFEA7
:1044D00080B208BD10B5C4B2022203212046FDF708
:1044E00073FD0A20FDF7B8FD204600220321FDF7E9
:1044F0006BFDBDE810400220FDF7AEBD38B50446A7
:10450000E4B2FDF75FFD00212046FDF775FD0121B6
:1045100005462046FDF770FD40EA052080B238BD13
:1045200010B5C4B240212046FDF766FD030607D54D
:104530004C212046FDF760FD003818BF012010BD5A
:1045400001224B212046FDF73FFD204600224B2152
:10455000FDF73AFD0020F2E773B50423C4B20E461E
:104560001546D7210DEB03022046FDF75FFD019BA9
:104570001BBA1A0DC3F30B23328020462B80012275
:104580004B21FDF721FD00224B212046FDF71CFDAC
:1045900002B070BD10B50A4A1378984204460DD097
:1045A000517888420AD00BB141B90123D454FDF7A8
:1045B00009FD2046BDE81040FFF78CBF10BD00BFCD
:1045C000002E002010B5C4B209212046FDF714FDCD
:1045D00040F00102D2B220460921BDE81040FDF7AB
:1045E000F3BC10B5C4B209212046FDF705FD092131
:1045F00000F0FE022046BDE81040FDF7E5BC38B5EE
:10460000C4B20D4620460A21FDF7F6FC40EA050239
:10461000D2B220460A21BDE83840FDF7D5BC10B51E
:104620000446FDF7D0FC20461F21FFF7E8FF204697
:10463000BDE81040FFF7C6BF38B5C4B20D462046EE
:104640000A21FDF7D9FC20EA0502D2B220460A2150
:10465000BDE83840FDF7B8BC10B50446FFF7C1FF10
:1046600020461F21BDE81040FFF7E6BF10B5C0B2DD
:104670000C460B21FDF7C0FC204010BD1F21FFF7A9
:10468000F5BF0A46C0B20B21FDF79EBC1F21FFF704
:10469000F8BF38B5C4B20D4620461721FDF7ACFC73
:1046A00020EA0502D2B220461721BDE83840FDF7C6
:1046B0008BBC70B5C4B2064604212046FDF79CFCB5
:1046C000042100F0FB0205462046FDF77DFC304644
:1046D000F021FFF7DEFF05F0F80220460421FDF788
:1046E00073FC492220212046FDF76EFC0220FDF7D5
:1046F000B3FC204601222121FDF766FC20469A22C8
:104700004121FDF761FC204601224A21FDF75CFCB6
:10471000204601224B21FDF757FC204600224B2169
:10472000FDF752FC204601225621FDF74DFC2046A4
:1047300001225821FDF748FC204601224021FDF7C7
:1047400043FC2046FF220B21FDF73EFCBDE87040F4
:104750000220FDF781BC0000054BD3F8882042F40D
:104760007002C3F888204FF000629A60704700BF63
:1047700000ED00E008B50B4B1A6842F400721A60B5
:104780001A6842F480621A601A6842F480721A60F1
:10479000032000F045FA0020FDF784FFFDF7E6FC5A
:1047A000002008BD003C0240034A044B11681B78FE
:1047B0000B441360704700BF042E0020D00000207F
:1047C000014B1868704700BF042E002038B504461E
:1047D000FFF7F6FF631C1CBF054B1B78054618BF8F
:1047E000E418FFF7EDFF431BA342FAD338BD00BF27
:1047F000D000002038B50446002800F09B80056CEE
:1048000025B9FDF7D3FC656484F83C50236CDB06C6
:1048100000F18E80236C23F4885323F0020343F0CD
:1048200002032364444B5A6822F440325A605A68A7
:1048300061680A435A60236821695A6822F48072C9
:104840005A605A6842EA01225A605A68A16822F006
:1048500040725A605A680A435A609A68E16822F4C2
:1048600000629A609A680A439A603449A26A8A424E
:1048700052D0996821F07061996099680A439A60F2
:104880009A68E16A22F040529A609A680A439A60F4
:104890009A6822F002029A609A68217E42EA4102F6
:1048A0009A6094F82020002A3ED05A68616A42F447
:1048B00000625A605A6822F460425A605A680139AC
:1048C00042EA41325A60DA6AE16922F47002DA623D
:1048D000DA6A013942EA0152DA629A6822F4007215
:1048E0009A609A6894F8301042EA41229A609A6875
:1048F000616922F480629A609A68002042EA81220B
:104900009A606064236C23F0030343F00103236483
:10491000002384F83C3038BD9A6822F070629A60B7
:104920009A6822F04052B2E75A6822F40062C9E75E
:104930000120EDE70120EEE7002301400100000F18
:1049400082B00023019390F83C30012B69D0012301
:1049500080F83C3003689A68D2070BD59A68D10773
:104960001AD4036C43F010030364436C43F0010357
:1049700043644CE09A682C4942F001029A602B4A49
:104980001268B2FBF1F202EB42020192019A002A94
:10499000E4D0019A013AF8E7026C22F4E06222F0D6
:1049A000010242F4807202645A68520541BF026CEF
:1049B00022F4405242F480520264026C12F480529B
:1049C0001CBF426C22F006024264002280F83C20A8
:1049D0006FF022021A60164A516811F01F0F154934
:1049E0001CD18B4207D001F580718B420CD15268EB
:1049F00012F01F0F0BD19A6812F0405F07D19A682E
:104A000042F080429A6002E00B498B4202D00020C3
:104A100002B07047526812F0100FEBE78B42F6D1EC
:104A2000E9E70220F4E700BF40420F00CC0000207D
:104A300000230140002001400022014003689A68E1
:104A4000520570B504460D460BD59B68DE0508D5AA
:104A5000036C43F020030364002380F83C30012002
:104A600070BDFFF7ADFE064623681A6891070CD5A6
:104A70006FF012021A60226C42F4007222649A688B
:104A800012F0405F17D00020EAE7681CEDD065B94E
:104A900023681B6813F00203E6D1226C84F83C30D3
:104AA00042F0040222640320DAE7FFF789FE801B4C
:104AB000A842EDD8D8E7227E002AE4D1DA6A12F4BF
:104AC000700F02D09B685A05DDD4236C23F48073E9
:104AD0002364236CDB04D6D4236C43F001032364EA
:104AE000D1E70368D86C7047F7B50023019390F8BD
:104AF0003C30012B054600F08680012380F83C30D5
:104B000008682B688E68092884B233D904EB440204
:104B1000DF681E3A4FF0070C0CFA02FC27EA0C077C
:104B2000DF60DF6806FA02F23A43DA604968062974
:104B300001EB81022DD8596B053A1F26964021EAD8
:104B400006015963596B04FA02F20A435A632F4A69
:104B500093420AD1122837D12D4B5A6822F4000211
:104B60005A605A6842F480025A60002085F83C007E
:104B700003B0F0BD1A6900EB400C072707FA0CF7E9
:104B800022EA07021A611A6906FA0CF616431E6138
:104B9000CCE70C294FF01F010BD81E6B233A914034
:104BA00026EA01011963196B04FA02F20A431A6337
:104BB000CDE7DE6A413A914026EA0101D962D96A1D
:104BC00094400C43DC62C2E7124B984201D011289A
:104BD000CBD10F4B5A6822F480025A605A6842F4D3
:104BE00000025A600B4B9842BFD10B4B0B4A1B681B
:104BF000B3FBF2F30A2253430193019B002BB4D081
:104C0000019B013BF8E70220B2E700BF0020014012
:104C10000023014012000010CC00002040420F0091
:104C20000749CA6822F4E0620302120403F4E06355
:104C3000120C134343F0BF6343F40033CB6070475F
:104C400000ED00E0164B30B5DC68C4F30224C4F17B
:104C50000703251D042B28BF0423062D4FF0FF3525
:104C60008CBF033C002405FA03F321EA0303A540AB
:104C700022EA0502A340002843EA0203ACBF00F188
:104C80006040084A4FEA0313B8BF00F00F00DBB2E0
:104C9000AABF00F56140135480F8003330BD00BF57
:104CA00000ED00E014ED00E0002807DB044A4109B4
:104CB000012300F01F00834042F82130704700BFFD
:104CC00000E100E010B5044650B1437903F0FF0263
:104CD00013B90271FDF79CFA01236371002010BD26
:104CE0000120FCE710B5044620B390F8393003F0FA
:104CF000FF021BB980F83820FDF7A2FA022384F8DE
:104D00003930236861681A6822F440320A431A6015
:104D10005A6BA16822F007020A435A631A6CE168D1
:104D20006FF30D020A431A6400200123E06384F844
:104D3000393010BD0120FCE770477047036870B53B
:104D40005E681D68F207044614D5E90512D51A6895
:104D500022F480721A60C26B42F00102C263012227
:104D60009A60042380F83930002380F83830436992
:104D700003B19847B20616D5AB0414D523681A6858
:104D800022F400521A6020229A60E36B43F002037F
:104D9000E363042384F83930002384F838306369EE
:104DA0000BB120469847300716D5290514D523683E
:104DB0001A6822F400621A6008229A60E36B43F0DA
:104DC0000403E363042384F83930002384F8383083
:104DD00063690BB12046984772070BD56B0509D55F
:104DE00023681A6822F480621A6004229A602046BE
:104DF000FFF7A2FFB00714D5A90512D523681A68DA
:104E000022F400721A6002229A60E36BE3630123CA
:104E100084F83930002384F8383023690BB12046F8
:104E20009847F20613D5EB0411D523681A6822F4CB
:104E300080521A6010229A60E36BE363012384F8C6
:104E40003930002384F838302046FFF776FF70BDF4
:104E5000F0B590F83820012A03464FF002002BD01D
:104E6000012283F8382083F8390003EB0112D2E9DC
:104E70000740556A174F44EA0040093C012C9CBF8B
:104E800005F07F4210434FEA01161A6888BF40EAD6
:104E9000056091B9516A394001435162012C996909
:104EA000916103D8596A21F07F419162012200206B
:104EB00083F8392083F83800F0BDD16939400143C7
:104EC000D1619919012C896911619CBF25F07F4539
:104ED0001562EBE7F0FFFC002DE9F74FDFF8BC911E
:104EE0006C4A00230D6801249C4004EA0506AC438B
:104EF00040F0B7804D68032705F003044FEA4308EC
:104F000007FA08FC671E012F6FEA0C0C34D887687B
:104F100007EA0C0ECF6807FA08F747EA0E07876022
:104F2000476827EA060EC5F300179F4047EA0E07B9
:104F30004760C76807EA0C0E8F6807FA08F747EA68
:104F40000E07022CC76019D14FEAD30A00EB8A0A78
:104F500003F0070BDAF820704FEA8B0B4FF00F0EBF
:104F60000EFA0BFE27EA0E0E0F6907FA0BF747EA57
:104F70000E07CAF8207001E0032CDAD1076804FAA2
:104F800008F407EA0C073C4315F4403F046068D07E
:104F900000240194D9F8444044F48044C9F84440C2
:104FA000D9F8444023F0030707F1804704F4804414
:104FB00007F59C37019403F0030C019CD7F808E037
:104FC0004FEA8C0C0F2404FA0CF42EEA040E324C37
:104FD000A0424DD004F58064A0424BD004F580641B
:104FE000A04249D004F58064A04247D004F5806413
:104FF000A04245D004F58064A04243D004F580640B
:10500000A04241D004F58064A0423FD004F5806402
:10501000A0423DD004F58064A04214BF0A240924B4
:1050200004FA0CF444EA0E04BC609468F74315F4E7
:10503000801F0CBF3C4034439460D46815F4001FBB
:105040000CBF3C403443D460546815F4003F0CBF9F
:105050003C40344354601468ED0354BF3C40344337
:1050600014600133102B7FF43DAF03B0BDE8F08F27
:105070000024D5E70124D3E70224D1E70324CFE7B6
:105080000424CDE70524CBE70624C9E70724C7E7B6
:105090000824C5E7003C01400000024000380240FF
:1050A0000369194214BF0120002070470AB18161D1
:1050B00070470904FBE7436901EA030221EA03019F
:1050C00041EA024181617047044A5169014208B5D1
:1050D00002D05061FCF7CDFC08BD00BF003C014090
:1050E00001684B6913F480634FF0000210D06FF435
:1050F00080634B612023026380F83D3080F83E20BE
:10510000036C80F83C2043F00403036401207047E3
:10511000184670472DE9F84606460F4691461D464B
:105120004FEA114A3368BAF1010F0CBF5C699C6900
:1051300027EA0404A4B2B4FA84F46409A14501D0B6
:10514000002025E06A1CEED0FFF73AFB089BC01A4E
:10515000A84201D8002DE5D13368BAF1010F0CBF88
:105160005B699B6927EA03039BB2B3FA83F35B098C
:105170009945D7D100232022336386F83D2086F855
:105180003E30326C86F83C3042F02002326401201E
:10519000BDE8F8862DE9F04104460F4616469846CC
:1051A0002568686927EA000080B2C0B16B695A05BA
:1051B00017D52B6843F400732B606FF480636B6129
:1051C00020220023236384F83D2084F83E30236CA2
:1051D00043F004032364002384F83C300120BDE83D
:1051E000F081731CDDD0FFF7EBFAA0EB0800B042B2
:1051F00001D8002ED4D123685A6927EA020292B25C
:10520000002ACDD000232022236384F83D2084F897
:105210003E30236C1343DDE770B504460D46164659
:1052200023685B691B0601D500201EE02046FFF7BE
:1052300057FFC8B96A1CF3D0FFF7C2FA801BA84217
:1052400001D8002DECD123685B6913F08003E7D10E
:105250002022236384F83D2084F83E30226C84F8B9
:105260003C3042F020022264012070BD2DE9F04361
:105270001546026885B0DDE90C789946136843F459
:10528000807313600E463B46CDF8008000224FF03D
:1052900001110446FFF73EFF236838B11B68DB05A8
:1052A00002D54FF400732364032620E006F0FE06C7
:1052B0001E611A4943463A462046FFF76BFFA8B9DC
:1052C000236803905A6903929B69039342463946C7
:1052D0002046039BFFF7A0FF064660B1236C042B1A
:1052E00001BF2268136843F400731360012630463F
:1052F00005B0BDE8F083B9F1010F236802D1EDB22A
:105300001D61F4E72A0A1A61394642462046FFF732
:1053100083FF0028E2D12368F1E700BF020001000B
:105320002DE9FF479A46036815461A6842F48062E1
:105330001A601A68DDE90C7842F480721A600E4631
:105340003B46CDF8008000224FF001110446FFF7E4
:10535000E1FE236838B11B68DB0544BF4FF40073DE
:105360002364032021E05FFA86F906F0FE061E6141
:105370002B4943463A462046FFF70CFFA0B9236865
:1053800003905A6903929B6903934246394620462B
:10539000039BFFF741FF58B1236C042B01BF226828
:1053A000136843F400731360012004B0BDE8F08774
:1053B000BAF1010F23681AD1EDB242461D61394698
:1053C0002046FFF729FF02460028E5D121680B6837
:1053D00043F480730B602046CDF800803B464FF0CD
:1053E0000111FFF797FE226860B11368B4E72A0A3B
:1053F0001A61394642462046FFF70EFF0028CBD1FE
:105400002368D9E749F001031361054943463A4649
:105410002046FFF7BFFE003818BF0120C5E700BFD8
:105420000200010070B504460D46164623685B690C
:105430005B0701D500201EE02046FFF751FEC8B9EA
:105440006A1CF3D0FFF7BCF9801BA84201D8002DDD
:10545000ECD123685B6913F00403E7D120222363B6
:1054600084F83D2084F83E30226C84F83C3042F0D1
:1054700020022264012070BD70B504460D46164618
:1054800021684B6913F0400301D0002011E04A6904
:10549000D2060FD56FF010024A612022236384F8F0
:1054A0003D2084F83E30236C2364002384F83C3094
:1054B000012070BDFFF784F9801BA84201D8002DA0
:1054C000DED123685B6913F04003D9D12022236326
:1054D00084F83D2084F83E30236C1343E4E7000059
:1054E00070B5044608B9012070BD90F83D3003F056
:1054F000FF021BB980F83C20FCF7C4FE242384F88B
:105500003D3023681A6822F001021A601A6842F4DA
:1055100000421A601A6822F400421A6001F09EFBF1
:105520003F4B65689D4294BF3E4B3F4B98428CBFBA
:1055300000230123002BD6D12268394E51683B4B02
:10554000B0FBF3F321F03F011943B542516088BF2E
:105550004FF49676116A88BF734321F03F0184BFF0
:105560004FF47A76B3FBF6F301330B431362D16940
:10557000431E2B4821F44F41854221F0FF0132D8D0
:105580006D0040F6FC70B3FBF5F30133034242D0EB
:10559000C3F30B031943D161D4E907301168034306
:1055A00021F0C0010B4313609168D4E9030321F497
:1055B0000341034321F0FF010B439360D4E905301D
:1055C000D168034321F0FF010B43D360136843F01C
:1055D0000103136000202023206484F83D30206301
:1055E00084F83E0080E7A06850B905EB4505B3FBA1
:1055F000F5F30133C3F30B037BB143F40043C9E775
:1056000019206843B3FBF0F30133C3F30B0323B159
:1056100043F44043BEE70423BCE70123BAE700BFDD
:10562000A08601007F841E00FF083D0040420F005D
:105630002DE9F743044699460C9E0F469046FFF726
:10564000BFF894F83D30202B054603D0022003B06C
:10565000BDE8F08300903C49192301222046FFF762
:1056600059FD0028F2D194F83C30012BEED020688F
:10567000012384F83C300368D9075EBF036843F018
:1056800001030360036823F400630360212384F8AB
:105690003D30402384F83E30002323640A9B63623C
:1056A000BDF82C306385638D2385284BE362424629
:1056B000CDE900654B4639462046FFF7D7FD002867
:1056C0002AD00120C3E7FFF7A7FD40B1236C042BCC
:1056D00001BF2268136843F400731360F1E7636A43
:1056E00027681A4612F8011B39616262628D218DAA
:1056F000013A92B262857A69481E80B252072085CB
:105700000AD548B15A783A6102336362638D013B2E
:1057100002399BB221856385238D2A463146204676
:10572000002BD0D1FFF77EFE0028CFD1226813686E
:1057300043F400731360202384F83D3084F83C0068
:1057400084F83E0083E700BF020010000000FFFF66
:105750002DE9F043044687B09946109F0D469046C8
:10576000FFF72EF894F83D30202B064604D0022592
:10577000284607B0BDE8F08300907A49192301223A
:105780002046FFF7C7FC0028F1D194F83C30012BEC
:10579000EDD02068012384F83C300368DB075EBF4E
:1057A000036843F001030360036823F400630360AC
:1057B000222384F83D30402384F83E3000232364C4
:1057C0000E9B6362BDF83C306385638D2385664B19
:1057D000E3622946CDE900764B4642462046FFF774
:1057E0009FFD054608B10125C2E7228D2368B2B9A5
:1057F00002905A6902929A690292029A1A6842F4D5
:1058000000721A60DFF86481238D002B2CD12022D6
:1058100084F83D2084F83C3084F83E30A8E7012A23
:105820000AD11A6822F480621A6003905A690392BE
:105830009A690392039AE1E7022A0ED11A6822F4C8
:1058400080621A601A6842F400621A6004905A6911
:1058500004929B690493049BD4E705905A690592CE
:105860009B690593059BCDE7032B56D8012B15D1DA
:10587000324639462046FFF7FFFD0028B3D12368A2
:105880001A69636A1A70636A01336362238D013B8C
:105890002385638D013B9BB26385B5E7022B0096A0
:1058A0003B464FF000024146204619D1FFF732FC3B
:1058B000002898D123681A6842F400721A601A69A5
:1058C000636A1A70626A531C6362238D013B2385ED
:1058D000638D013B9BB2638523681B695370D2E7DC
:1058E000FFF718FC024600287FF47DAF2368196893
:1058F00021F4806119601969636A1970636A013360
:105900006362238D013B2385638D013B9BB26385DD
:10591000414600963B462046C8E732463946204677
:10592000FFF7AAFD00287FF45EAF23681A69636A57
:105930001A70628D616A013A92B24B1C62852268CC
:105940006362238D5069013B9BB2400723857FF53D
:105950005BAF032B02BF136823F4806313601369EA
:105960004B7090E7020010000000FFFF04000100F0
:1059700010B590F83D30202BDCB216D1242380F8EE
:105980003D3003681A6822F001021A605A6A22F058
:1059900010025A625A6A114359621A6842F00102AF
:1059A0001A6080F83D40002010BD0220FCE730B5B1
:1059B00090F83D30202BDCB216D10268242380F809
:1059C0003D30136823F001031360556A4FF6F073FE
:1059D0002B400B439BB25362136843F001031360E7
:1059E00080F83D40002030BD0220FCE70068D1F87F
:1059F00000C0D201843283182DE9F043C6685D6887
:105A00004C68D1F8189005F470455D60C5680CF1DC
:105A10000107C5F30B45C6F30B4626443D4445EA52
:105A200006455D60C668CD68C6F30A062E449D68CB
:105A300005F470459D60C7688D68C7F30A07013596
:105A40003D4445EA06459D601D690E6925F0070540
:105A50001D614FF0000E1E6191F832709D6991F842
:105A60003180C3F818E091F8305045EA096545EAFD
:105A7000082545EA07459D615D6925F0FF055D61E3
:105A80004D695D61DD6925F4E06525F00705DD619F
:105A9000D1E907573D43DD619D6A4D6AC3F828E0AF
:105AA000072E9D629CBF0E4DAE5DDD6A05F0E025C0
:105AB000DD6288BF01268D6AC96AA4EB0C047443B9
:105AC0007543033444EA0544DC621C6B6FF30A043B
:105AD0001C631963835843F001038350BDE8F083CE
